:100000000C942F010C9457010C9457010C94570138
:100010000C9457010C9457010C9457010C94570100
:100020000C9457010C9457010C94BA0B0C94410C8E
:100030000C9457010C9457010C9457010C945701E0
:100040000C9457010C9457010C9457010C945701D0
:100050000C9457010C9457010C9457010C94C6074B
:100060000C9457010C9457010C9457010C945701B0
:100070000C9457010C9457010C9457010C945701A0
:100080000C9457010C9457010C9457010C94570190
:100090000C9457010C9457010C9457010C94570180
:1000A0000C9457010C9457010C945701080B000253
:1000B0000202010009040000010202000005240000
:1000C0001001052401010104240206052406000193
:1000D0000705810310004009040100020A00000026
:1000E00007050202400000070583024000000403E8
:1000F00009042203410072006400750069006E006B
:100100006F0020004C0065006F006E0061007200FF
:1001100064006F00180341007200640075006900FC
:100120006E006F0020004C004C00430012010002E2
:10013000000000404123368000010102000112014D
:10014000000202000040412336800001010200014C
:1001500000C18081C105010902A1010901A1008539
:100160000105091901290315002501950375018170
:10017000029501750581030501093009310938151A
:1001800081257F750895038106C0C005010906A178
:10019000018502050719E029E7150025017501957C
:1001A00008810295017508810395067508150025DB
:1001B000650507190029658100C0090402000103D3
:1001C00000000009210101000122650007058403E8
:1001D00040000100000000000000002A2B28000061
:1001E000000000000000000000000000000000000F
:1001F0000000002C9EB4A0A1A2A434A6A7A5AE36F0
:100200002D3738271E1F20212223242526B333B65D
:100210002EB7B89F8485868788898A8B8C8D8E8F30
:10022000909192939495969798999A9B9C9D2F3133
:1002300030A3AD350405060708090A0B0C0D0E0F97
:10024000101112131415161718191A1B1C1DAFB113
:10025000B0B500008A029A063809F60AC40D1124C6
:100260001FBECFEFDAE0DEBFCDBF11E0A0E0B1E00E
:10027000ECE4FEE102C005900D92A234B107D9F77B
:1002800012E0A2E4B1E001C01D92AE3BB107E1F77C
:1002900012E0CEE5D2E004C02297FE010E94200FBA
:1002A000C435D107C9F70E94030A0C94240F0C949B
:1002B0000000CF93DF93BC018230910510F462E01F
:1002C00070E0A091BC02B091BD02ED01E0E0F0E071
:1002D00040E050E021C0888199818617970769F432
:1002E0008A819B81309719F09383828304C0909315
:1002F000BD028093BC02FE0134C06817790738F450
:100300004115510519F08417950708F4AC01FE0159
:100310008A819B819C01E9012097E9F641155105ED
:10032000A9F1CA01861B970B049708F4BA01E0E013
:10033000F0E02AC08D919C91119784179507F9F4EC
:100340006417750781F412968D919C9113973097DD
:1003500019F09383828304C09093BD028093BC0202
:10036000FD0132964CC0CA01861B970BFD01E80FB8
:10037000F91F6193719302978D939C9340C0FD0187
:10038000828193819C01D9011097A1F68091BA02D4
:100390009091BB02892B41F480910201909103015D
:1003A0009093BB028093BA024091040150910501E1
:1003B0004115510541F44DB75EB780910001909110
:1003C0000101481B590B2091BA023091BB02CA01AE
:1003D000821B930B8617970780F0AB014E5F5F4F30
:1003E0008417950750F0420F531F5093BB02409360
:1003F000BA02F9016193719302C0E0E0F0E0CF012D
:10040000DF91CF910895CF93DF93009709F450C007
:10041000EC0122971B821A82A091BC02B091BD020E
:10042000109709F140E050E0AC17BD0708F1BB831D
:10043000AA83FE0121913191E20FF31FAE17BF078E
:1004400079F48D919C911197280F391F2E5F3F4FA2
:100450003983288312968D919C9113979B838A836D
:100460004115510571F4D093BD02C093BC0220C068
:1004700012968D919C911397AD01009711F0DC01BC
:10048000D3CFFA01D383C28321913191E20FF31FBD
:10049000CE17DF0769F488819981280F391F2E5FF5
:1004A0003F4FFA01318320838A819B81938382832A
:1004B000DF91CF910895FC01A081B1812D913C91F4
:1004C000F9010995089581E008950895FC013F9A86
:1004D00080E8828388E290E0948383830895DF93A9
:1004E000CF9300D00F92CDB7DEB7DC01AB01ED9119
:1004F000FC910680F781E02D19821A821B82BE01D1
:100500006F5F7F4F20E009950F900F900F90CF9174
:10051000DF91089586EF91E00E94B6060895CF928C
:10052000DF92EF92FF920F931F93DF93CF9300D050
:1005300000D000D0CDB7DEB77E010894E11CF11CDD
:1005400064E0C62ED12CCC0EDD1E86E992E00E941E
:10055000EE080397D4F3870186E992E00E9415091B
:100560008F3F39F0F8018083802F8E19823029F572
:100570000BC082E092E0609144020E941506109246
:10058000010210920002E1CF8091000290910102DD
:100590003A814B8129812C833D834E83FC01EE0FF0
:1005A000FF1FE80FF91FEE5BFE4F2083318342836C
:1005B000019690930102809300020F5F1F4F0C156C
:1005C0001D0551F6C2CF86E992E00E94EE0818168A
:1005D000190614F40E948F0286EF91E062E471E044
:1005E0000E94B70764E170E080E090E00E94340868
:1005F00008950F931F938C010E940E089B01AC017C
:10060000F80180819181A281B381281B390B4A0BAB
:100610005B0B223331054105510534F482E390E050
:10062000821B930B0E948D081F910F910895CF920A
:10063000DF92EF92FF920F931F93CF93DF936C01A2
:10064000162F072FEA01E22E05960E94F902F89470
:10065000212F302FC901FC01BE01660F771F6C0FDF
:100660007D1F680F791F58B1506888B18F7788B99E
:1006700021813E2D239F212DC3C095E058B9001440
:100680000014001427FF88B900140014001400148B
:1006900088B9001400140014220F915079F7001447
:1006A00058B900140014001427FF88B9001400146E
:1006B0000014001488B9001402E00A95F1F758B943
:1006C00000140014001426FF88B90014001400144C
:1006D000001488B90014001430814E2D349F312D40
:1006E00058B900140014001425FF88B90014001430
:1006F0000014001488B902E00A95F1F795E058B9A2
:1007000000140014001437FF88B9001400140014FA
:10071000001488B9001400140014330F915079F7B5
:10072000001458B900140014001437FF88B90014DD
:1007300000140014001488B9001402E00A95F1F7BF
:1007400058B900140014001436FF88B900140014BE
:100750000014001488B90014001442812E2D429F09
:10076000412D58B900140014001435FF88B9001445
:1007700000140014001488B902E00A95F1F795E01E
:1007800058B900140014001447FF88B9001400146D
:100790000014001488B9001400140014440F915080
:1007A00079F7001458B900140014001447FF88B9F1
:1007B000001400140014001488B90014001400146C
:1007C00000140014339658B900140014001446FFA6
:1007D00088B9001400140014001488B9001400141F
:1007E00021813E2D239F212D58B90014001400149F
:1007F00045FF88B9001400140014001488B90014CF
:10080000E617F70708F439CF1124E0904D02F09075
:100810004E0200914F0210915002BE01E3E0660FBC
:10082000771FEA95E1F76C0F7D1F882777FD80958C
:10083000982F28EE33E040E050E00E94030FE20ED4
:10084000F31E041F151FE0924D02F0924E0200931A
:100850004F021093500278940E940E08F6016583AF
:10086000768387839087DF91CF911F910F91FF90BF
:10087000EF90DF90CF900895AF92BF92CF92DF922A
:10088000EF92FF920F931F93CF93DF935C01EB01E5
:100890006A01122F05960E94F902F894B601660FBC
:1008A000771F6C0D7D1D6C0F7D1F58B1506888B18E
:1008B0008F7788B9A9812A2F219F212DFE01C0C0E1
:1008C00095E058B900140014001427FF88B90014EB
:1008D00000140014001488B9001400140014220F2E
:1008E000915079F7001458B900140014001427FF30
:1008F00088B9001400140014001488B9001402E030
:100900000A95F1F758B900140014001426FF88B9AD
:10091000001400140014001488B900140014388165
:10092000319F312D58B900140014001425FF88B9E7
:10093000001400140014001488B902E00A95F1F7BD
:1009400095E058B900140014001437FF88B900145A
:1009500000140014001488B9001400140014330F9C
:10096000915079F7001458B900140014001437FF9F
:1009700088B9001400140014001488B9001402E0AF
:100980000A95F1F758B900140014001436FF88B91D
:10099000001400140014001488B9001400144A81D3
:1009A000419F412D58B900140014001435FF88B937
:1009B000001400140014001488B902E00A95F1F73D
:1009C00095E058B900140014001447FF88B90014CA
:1009D00000140014001488B9001400140014440F0B
:1009E000915079F7001458B900140014001447FF0F
:1009F00088B9001400140014001488B900140014FD
:100A0000001400140014339658B900140014001494
:100A100046FF88B9001400140014001488B90014AB
:100A200000142A2F219F212D58B9001400140014FE
:100A300045FF88B9001400140014001488B900148C
:100A4000E617F70708F43CCF1124E0904D02F09030
:100A50004E0200914F0210915002B601B3E0660FB2
:100A6000771FBA95E1F76C0D7D1D882777FD80957E
:100A7000982F28EE33E040E050E00E94030FE20E92
:100A8000F31E041F151FE0924D02F0924E020093D8
:100A90004F021093500278940E940E08F50165836E
:100AA000768387839087DF91CF911F910F91FF907D
:100AB000EF90DF90CF90BF90AF900895EF92FF92AC
:100AC0000F931F93DF93CF9300D00F92CDB7DEB774
:100AD00086E992E060E071EE0E94ED0889E090E026
:100AE0000E94160AFC01158216821782108684E184
:100AF00091E09183808382E0E82E82E0F82EC701A6
:100B0000BF0142E451E02CE330E000E010E00E943D
:100B1000C00519821A821B82C701BE016F5F7F4F19
:100B2000409144020E94510686EE80934402C70120
:100B300066EE0E941506ECEFFFE63491EDEFFFE65E
:100B40002491EEEFFFE644918FEF9FE6FC01849144
:100B5000742F60E0680F711D532F40E0420F511D4C
:100B600086EF91E021E00CE30E94C2060F900F9007
:100B70000F90CF91DF911F910F91FF90EF9008950B
:100B8000DF92EF92FF920F931F93CF93DF93EC01CD
:100B90007B01101611062CF0D22E032F20E030E03E
:100BA00002C0D02E012FC05CDF4FA881B981C05494
:100BB000D040FE0160E070E007C0808191813896EE
:100BC000892B41F06F5F7F4F6A177B07B4F3EE24E8
:100BD000FF2422C0E3E0660F771FEA95E1F7DE010C
:100BE000A60FB71F1196FC92EE92FE01E60FF71FBB
:100BF0005383428317963C932E931697FB013496AA
:100C0000EC0FFD1FD0820183D701ED91FC91019083
:100C1000F081E02DC7010995C701DF91CF911F91A8
:100C20000F91FF90EF90DF900895DF92EF92FF9287
:100C30000F931F93CF93DF93D62EEC0100E010E0CB
:100C400050E4E52EF12CE80EF91E1DC0A881B981F3
:100C50001097F9F0ED91FC9111972E813F81C90118
:100C6000880F991F820F931F6A817B81680F791FFC
:100C70004C815D810084F185E02DCD012D2D0995FC
:100C80000F5F1F4F2896F701808191810817190780
:100C9000ECF2DF91CF911F910F91FF90EF90DF90D9
:100CA0000895BF92CF92DF92EF92FF920F931F931E
:100CB000CF93DF936B01B42EEC0100E010E060E411
:100CC000E62EF12CE80EF91E13C0A881B981109709
:100CD000A9F0ED91FC9111974C815D810680F7811F
:100CE000E02DCD01B6012B2D09950F5F1F4F2896E2
:100CF000F70180819181081719073CF3DF91CF91AB
:100D00001F910F91FF90EF90DF90CF90BF900895CB
:100D1000FC01E05CFF4F88E090E0819391938FEFBE
:100D20008083E254F040CF0160E040E450E00E9454
:100D3000AB06089582E092E00E94880680EE98EC6F
:100D4000AFEFBFEF8093450290934602A093470216
:100D5000B09348020895DC0140FF03C001C06D93C9
:100D60006D934250E0F75040D0F70895FC01118296
:100D700010821382128214821582178216821186C3
:100D8000108608950F93FC0171836083538342831F
:100D90002483058317821682518740870F91089517
:100DA000EF92FF920F931F93DF93CF9300D00F9298
:100DB000CDB7DEB78C01EE2443E0F42ED8011896AF
:100DC000ED91FC91199754915F773196449131964A
:100DD000E491B42FB87F2E2F30E0C901807E90704F
:100DE00033E0959587953A95E1F74295440F407E1B
:100DF000482B220F220F220FEF9CF0011124E60F47
:100E0000F71F80E008C0B9834A832B83B0834183F6
:100E100022838F5F33968517B0F3E50EF801808546
:100E20009185039691878087FBE3FE1508F0C6CF76
:100E300082E092E0609144020E941506D801169665
:100E40008D919C9117976D917C9101960E94CD0E8A
:100E5000F80197838683009721F48281938191879B
:100E600080870F900F900F90CF91DF911F910F917E
:100E7000FF90EF900895AF92BF92CF92DF92FF92D2
:100E80000F931F93DF93CF9300D00F92CDB7DEB7B0
:100E90008C01DC0116968D919C9117979C01220F75
:100EA000331F280F391F15968C91159790E0F90183
:100EB000E89F9001E99F300DF89F300D11241296A4
:100EC0008D919C911397820F931F19969C938E93EB
:100ED000189740E053E0F52E26C04F9DC001112425
:100EE0006B01C80ED91ED8011896AD90BC90199709
:100EF0009501280F391FF901549101969501280F8A
:100F0000391FF90124910196A80EB91EF5018491AB
:100F100059832A838B83D6015C9311962C93119766
:100F200012968C934F5FF80185814817B0F282E0EA
:100F300092E0609144020E941506D80116968D91A8
:100F40009C9117976D917C9101960E94CD0EF801AE
:100F5000978386830F900F900F90CF91DF911F9111
:100F60000F91FF90DF90CF90BF90AF900895FC015C
:100F70008481882319F0813041F404C0CF010E949C
:100F80003B070895CF010E94D00608951F920F924B
:100F90000FB60F9211242F933F938F939F93AF938C
:100FA000BF9380914D0290914E02A0914F02B0915B
:100FB0005002309151020196A11DB11D232F2D5FCA
:100FC0002D3720F02D570196A11DB11D2093510200
:100FD00080934D0290934E02A0934F02B093500223
:100FE0008091490290914A02A0914B02B0914C022B
:100FF0000196A11DB11D8093490290934A02A093CE
:101000004B02B0934C02BF91AF919F918F913F9152
:101010002F910F900FBE0F901F9018959FB7F894C7
:101020002091490230914A0240914B0250914C026A
:1010300086B5A89B06C08F3F21F02F5F3F4F4F4FD3
:101040005F4F9FBF542F432F322F2227280F311D70
:10105000411D511D82E0220F331F441F551F8A95E9
:10106000D1F7B901CA0108959B01AC017FB7F8948B
:101070008091490290914A02A0914B02B0914C029A
:1010800066B5A89B05C06F3F19F00196A11DB11D63
:101090007FBFBA2FA92F982F8827860F911DA11DDA
:1010A000B11D62E0880F991FAA1FBB1F6A95D1F777
:1010B000BC012DC0FFB7F8948091490290914A027B
:1010C000A0914B02B0914C02E6B5A89B05C0EF3F42
:1010D00019F00196A11DB11DFFBFBA2FA92F982F9E
:1010E00088278E0F911DA11DB11DE2E0880F991F69
:1010F000AA1FBB1FEA95D1F7861B970B885E93400A
:10110000C8F2215030404040504068517C4F21157A
:1011100031054105510571F60895019739F0880FA1
:10112000991F880F991F02970197F1F708957894F6
:1011300084B5826084BD84B5816084BD85B58260DC
:1011400085BD85B5816085BDEEE6F0E0808181607A
:101150008083E1E8F0E0108280818260808380817A
:1011600081608083E0E8F0E0808181608083E1E954
:10117000F0E0808182608083808181608083E0E90B
:10118000F0E0808181608083E1ECF0E08081846028
:101190008083808182608083808181608083E3ECB2
:1011A000F0E0808181608083E0ECF0E0808182600B
:1011B0008083E2ECF0E0808181608083EAE7F0E008
:1011C000808184608083808182608083808181606F
:1011D00080838081806880830895089520919202A1
:1011E000309193028091940290919502281B390BC3
:1011F0002F733070C90108952091920230919302AB
:1012000080919402909195022817390719F42FEFD5
:101210003FEF09C0E0919402F0919502EE5AFD4F24
:101220008081282F30E0C9010895209192023091E9
:10123000930280919402909195022817390719F42E
:101240002FEF3FEF13C0E0919402F0919502EE5A18
:10125000FD4F2081809194029091950201968F73A9
:101260009070909395028093940230E0C9010895A4
:10127000109299021092980288EE93E0A0E0B0E0FC
:1012800080939A0290939B02A0939C02B0939D023C
:1012900086E291E0909397028093960208950F93CF
:1012A0001F93DF93CF930F92CDB7DEB78C01698385
:1012B00080910D01882369F083E0BE016F5F7F4F4D
:1012C00041E050E00E94150B1816190614F49C0119
:1012D00007C081E090E0F8019383828320E030E052
:1012E000C9010F90CF91DF911F910F91089583E075
:1012F0000E94EC0A0895CF93DF9312C082E00E940F
:10130000770A2FEF8F3F9207C9F0E0919202F09198
:101310009302EE5AFD4F8083D0939302C0939202C2
:10132000C0919202D09193022196CF73D070809198
:10133000940290919502C817D90701F7DF91CF91D8
:101340000895FC0180818E5F808380E86CEA70E004
:1013500042E450E00E94900A0895FC01818190814E
:10136000913A59F4813209F04CC080E066E071E0B6
:1013700047E050E00E94900A42C0913209F041C01B
:10138000803239F486E091E067E070E00E94D40A90
:1013900036C0823209F035C0828180930D01809180
:1013A000060190910701A0910801B0910901805BAD
:1013B0009440A040B04019F580910D0180FD12C00D
:1013C00087E797E790930108809300082BE088E176
:1013D00090E00FB6F894A895809360000FBE20931C
:1013E00060000DC088E10FB6F89480936000109201
:1013F00060000FBEA895109201081092000881E0CD
:10140000089580E00895CF93DF930E9497088CEAB7
:1014100092E00E94F70A0E945E05C0E0D0E00E94C0
:10142000E3022097E1F30E940000F9CF0E945901E6
:101430000895CF92DF92EF92FF920F931F93CF9375
:10144000DF937C016B018A01C0E0D0E00FC0D601C0
:101450006D916D01D701ED91FC910190F081E02D2E
:10146000C7010995C80FD91F01501040011511057A
:1014700071F7CE01DF91CF911F910F91FF90EF9007
:10148000DF90CF900895282F8091A6028823C1F085
:1014900057FF1AC015C028989093A5028091F100BB
:1014A0008193E217F307B9F74115510539F080919F
:1014B000F200882319F48BE68093E800AFBF02C0E6
:1014C0004FEF5FEFCA010895AFB7F89427702093EC
:1014D000E9008091F200282F30E0241735070CF442
:1014E000A901FB019B01240F311D94E6DACFDF93A4
:1014F000CF930F92CDB7DEB7BE016F5F7F4F41E054
:1015000050E00E94430A019719F02FEF3FEF03C00C
:101510008981282F30E0C9010F90CF91DF91089584
:10152000FF920F931F93F82E142F052F4091A902BD
:101530005091AA02212F302FC901DC01FB016EEF6F
:1015400029C0F7FE02C0949101C090812091A702AA
:101550003091A80224173507ACF48091E80085701B
:10156000E1F38091E80082FF03C02FEF3FEF17C047
:101570009093F100C90101968F739070892B11F43B
:101580006093E8002F5F3F4F3093A8022093A7029B
:10159000119731961097A9F6812F902F9C01C901C0
:1015A0001F910F91FF9008959C018091E80082FFA8
:1015B000FCCFF901260F311D03C08091F10081930A
:1015C000E217F307D1F7289884E68093A5028BEF02
:1015D0008093E800CB0108958093E9008091F200A8
:1015E000882319F08AE38093E80008950895109203
:1015F000A60281E08093D70080EA8093D80082E140
:1016000089BD09B400FEFDCF61E070E080E090E0AC
:101610000E94340880E98093D8008CE08093E20037
:101620001092E000559A209A08955F926F927F92EF
:101630008F929F92AF92BF92CF92DF92EF92FF92E2
:101640000F931F93CF93DF93E82E842E752E8091F6
:10165000A602882371F18B01242F352FC901EC01DB
:101660007AEFF72E67E0962E9E2050E4552E8E2DB1
:1016700090E040E2A42EB12CA822B9223AE3632ED6
:1016800020E4C22ED12CC822D92258C09FB7F8948A
:101690009092E9008091E80085FD02C020E004C03E
:1016A0008091F200252D281B9FBF222361F4FA941C
:1016B00019F42FEF3FEF4DC061E070E080E090E063
:1016C0000E9434083BC0822F90E0C817D9070CF461
:1016D0002C2FC21BD1094FB7F8949092E900A114A6
:1016E000B10421F406C01092F10021502223D9F751
:1016F00019C0E7FC03C0F801922F10C0C801322FB7
:1017000006C0FC010196E491E093F10031503323CF
:10171000C1F706C081918093F10091509923D1F7D0
:10172000020F111D8091E80085FF05C0209729F464
:10173000C114D10411F06092E8004FBF209709F066
:10174000A5CF5D9884E68093A402282D372DC9018A
:101750009C01C901DF91CF911F910F91FF90EF90F4
:10176000DF90CF90BF90AF909F908F907F906F90C1
:101770005F9008951F920F920FB60F9211242F932E
:101780003F934F935F936F937F938F939F93AF9309
:10179000BF93EF93FF938091E1001092E100982FA7
:1017A00083FF0FC01092E90081E08093EB0010925C
:1017B000EC0082E38093ED001092A60288E0809313
:1017C000F00092FF34C083E08093E9008091F20042
:1017D000882319F08AE38093E8008FB7F89492E0A9
:1017E0009093E9009091F2008FBF992321F086E950
:1017F00092E00E947B098091A402882351F080919D
:10180000A40281508093A4028091A402882309F449
:101810005D9A8091A502882351F08091A5028150A4
:101820008093A5028091A502882309F4289AFF914C
:10183000EF91BF91AF919F918F917F916F915F9148
:101840004F913F912F910F900FBE0F901F901895C1
:101850000F931F93DF93CF930F92CDB7DEB719820B
:101860008E010F5F1F4FC8010E94A109C8010E948D
:10187000C10E898190E00F90CF91DF911F910F9160
:1018800008951F920F920FB60F921124EF92FF92BC
:101890001F932F933F934F935F936F937F938F93F8
:1018A0009F93AF93BF93EF93FF93DF93CF93CDB706
:1018B000DEB76197DEBFCDBF1092E9008091E800EE
:1018C00083FF0FC1FE0131969E01275F3F4F03C08A
:1018D0008091F1008193E217F307D1F7289884E60D
:1018E0008093A50282EF8093E800998197FF05C05D
:1018F0008091E80080FFFCCF03C08EEF8093E8006A
:10190000292F30E0C90180769070892B09F0C2C080
:101910008A81882329F41092F1001092F100D6C038
:10192000813009F4D3C0833009F4D0C0853049F444
:101930008091E80080FFFCCF8B8180688093E3007A
:10194000C5C0863009F07CC01C81EF80F88412305D
:10195000C1F51092E9001092A8021092A70210920D
:10196000AA021092A9020E94280C99E0FE01399661
:10197000DF01292F1D922A95E9F799871A8791E0AF
:101980009E8790E8988B9AEF998B2091A7023091CF
:10199000A802275F3F4F3C872B878D871092E90075
:1019A0001092A8021092A702F092AA02E092A90255
:1019B00080E0BF0149E050E00E94900A0E94280C9C
:1019C00085C01092E9001092A8021092A702F0922E
:1019D000AA02E092A902123241F482E290E00E944F
:1019E000B90E892B09F476C071C0113079F488E002
:1019F000E816F10419F481E08093AB028091AB0208
:101A0000882309F06BC0ECE2F1E013C0133009F059
:101A100061C08B81882319F4EEEEF0E00AC08230B9
:101A200019F4E2EFF0E005C0813009F053C0E4E1C1
:101A3000F1E0449180E8BF0150E00E94900A46C066
:101A4000873009F447C0883021F481E08093F100A9
:101A50003DC08930D9F523703070232BD9F5E1E5ED
:101A6000F1E091E031E026E39093E9003093EB0060
:101A700084918093EC002093ED009F5F3196953028
:101A800099F78EE78093EA001092EA008B818093A9
:101A9000A6021CC08F8198851092E9001092A802BE
:101AA0001092A7029093AA028093A9028D818823A5
:101AB00029F4CE0101960E94AD0906C0823051F48E
:101AC000CE0101960E948A0D882321F08EEF80932B
:101AD000E80007C081E28093EB0003C0EEE3F1E091
:101AE000A8CF6196DEBFCDBFCF91DF91FF91EF917F
:101AF000BF91AF919F918F917F916F915F914F9126
:101B00003F912F911F91FF90EF900F900FBE0F907C
:101B10001F901895FC0191818081813A31F49130B8
:101B200089F080E0933089F40DC0813269F49B30F4
:101B300021F4828180930E0105C09A3029F48281BC
:101B400080930F0181E0089580E00895EF92FF9265
:101B50000F931F938C01E62EDC01ED91FC91048024
:101B6000F581E02D0995F82ED801ED91FC910680C4
:101B7000F781E02DC8016E2D09958F2D90E01F9102
:101B80000F91FF90EF9008951092AD021092B10264
:101B90001092B00288E391E09093AF028093AE027E
:101BA0000895EF92FF920F931F93DF93CF930F92BD
:101BB000CDB7DEB789838B017A0184E0BE016F5F08
:101BC0007F4F41E050E00E94150B84E4B801A7016B
:101BD0000E94150B0F90CF91DF911F910F91FF90F5
:101BE000EF90089582E048E050E00E94D10D089502
:101BF000FC011682178210861186128613861482C3
:101C00003496BF010E94F20D0895DC01683810F08F
:101C1000685829C0E62FF0E067FF13C0E058F04095
:101C200081E090E002C0880F991FEA95E2F7809565
:101C300014962C911497282314962C93149760E0F3
:101C400012C0ED52FE4F6491662319F420E030E09B
:101C50001DC067FF08C014968C9114978D7F149651
:101C60008C9314976F77FD0190E0662321F08681B5
:101C7000861709F416829F5F31969630B1F7CD0131
:101C80001496BD010E94F20D21E030E0C9010895D3
:101C9000CF93DF93DC01683810F0685825C0E62F39
:101CA000F0E067FF12C0E058F04081E090E002C031
:101CB000880F991FEA95E2F714962C911497282B18
:101CC00014962C93149760E00FC0ED52FE4F649170
:101CD0006623D9F167FF08C014968C91149782602F
:101CE00014968C9314976F7716968C911697861787
:101CF000A9F117968C911797861781F118968C91F8
:101D00001897861759F119968C911997861731F102
:101D10001A968C911A97861709F11B968C911B972E
:101D20008617E1F0ED01E0E0F0E09E2F8E81882340
:101D300021F4EA0FFB1F668306C09F5F3196219650
:101D4000E630F10591F7963049F481E090E0139682
:101D50009C938E93129720E030E007C0CD0114963B
:101D6000BD010E94F20D21E030E0C901DF91CF9169
:101D7000089580E865E571E045E650E00E94900A2C
:101D80000895FC0180818F5F808380E86AEB71E0B9
:101D900049E150E00E94900A0895AA1BBB1B51E143
:101DA00007C0AA1FBB1FA617B70710F0A61BB70BCB
:101DB000881F991F5A95A9F780959095BC01CD0170
:101DC0000895A1E21A2EAA1BBB1BFD010DC0AA1F7C
:101DD000BB1FEE1FFF1FA217B307E407F50720F094
:101DE000A21BB30BE40BF50B661F771F881F991F0F
:101DF0001A9469F760957095809590959B01AC0158
:101E0000BD01CF01089597FB092E05260ED057FD81
:101E100004D0D7DF0AD0001C38F450954095309597
:101E200021953F4F4F4F5F4F0895F6F7909580955E
:101E3000709561957F4F8F4F9F4F0895EE0FFF1F55
:0C1E40000590F491E02D0994F894FFCF78
:101E4C002000BE02000000E10000000000000101C3
:101E5C000000000066025B026F023C041703630281
:101E6C006502000000004F09190AEE081509FC086C
:101E7C0077097B0900000000A60D190A480E050E13
:021E8C00F80D4F
:00000001FF
